{
  "contractName": "MarketPlace",
  "abi": [
    {
      "inputs": [
        {
          "internalType": "address",
          "name": "mousaiAddress",
          "type": "address"
        }
      ],
      "stateMutability": "nonpayable",
      "type": "constructor"
    },
    {
      "inputs": [],
      "name": "FIRST_ID",
      "outputs": [
        {
          "internalType": "uint256",
          "name": "",
          "type": "uint256"
        }
      ],
      "stateMutability": "view",
      "type": "function"
    },
    {
      "inputs": [],
      "name": "LAST_ID",
      "outputs": [
        {
          "internalType": "uint256",
          "name": "",
          "type": "uint256"
        }
      ],
      "stateMutability": "view",
      "type": "function"
    },
    {
      "inputs": [],
      "name": "MAX_PRICE",
      "outputs": [
        {
          "internalType": "uint256",
          "name": "",
          "type": "uint256"
        }
      ],
      "stateMutability": "view",
      "type": "function"
    },
    {
      "inputs": [],
      "name": "MIN_PRICE",
      "outputs": [
        {
          "internalType": "uint256",
          "name": "",
          "type": "uint256"
        }
      ],
      "stateMutability": "view",
      "type": "function"
    },
    {
      "inputs": [],
      "name": "nftContract",
      "outputs": [
        {
          "internalType": "contract MousaiNFT",
          "name": "",
          "type": "address"
        }
      ],
      "stateMutability": "view",
      "type": "function"
    },
    {
      "inputs": [
        {
          "internalType": "uint256",
          "name": "_tokenId",
          "type": "uint256"
        },
        {
          "internalType": "address",
          "name": "_tokenPaid",
          "type": "address"
        },
        {
          "internalType": "uint256",
          "name": "_amount",
          "type": "uint256"
        }
      ],
      "name": "buyNFT",
      "outputs": [
        {
          "internalType": "uint256",
          "name": "",
          "type": "uint256"
        }
      ],
      "stateMutability": "nonpayable",
      "type": "function"
    },
    {
      "inputs": [
        {
          "internalType": "uint256",
          "name": "_tokenId",
          "type": "uint256"
        },
        {
          "internalType": "uint256",
          "name": "_amount",
          "type": "uint256"
        }
      ],
      "name": "buyNFTWithEth",
      "outputs": [
        {
          "internalType": "uint256",
          "name": "",
          "type": "uint256"
        }
      ],
      "stateMutability": "payable",
      "type": "function"
    },
    {
      "inputs": [
        {
          "internalType": "uint256",
          "name": "idx",
          "type": "uint256"
        }
      ],
      "name": "getPriceToMint",
      "outputs": [
        {
          "internalType": "uint256",
          "name": "",
          "type": "uint256"
        }
      ],
      "stateMutability": "view",
      "type": "function"
    }
  ],
  "bytecode": "0x608060405260016000556000600155600060025534801561001f57600080fd5b50604051610cc3380380610cc38339818101604052602081101561004257600080fd5b810190808051906020019092919050505080600360006101000a81548173ffffffffffffffffffffffffffffffffffffffff021916908373ffffffffffffffffffffffffffffffffffffffff16021790555050610c1f806100a46000396000f3fe60806040526004361061007b5760003560e01c8063ad9f20a61161004e578063ad9f20a6146101bf578063b9bf859c146101ea578063d56d229d14610215578063d84960c21461026c5761007b565b806301c11d961461008057806318538543146100ab5780633152317f146101245780636975dccd14610173575b600080fd5b34801561008c57600080fd5b50610095610297565b6040518082815260200191505060405180910390f35b3480156100b757600080fd5b5061010e600480360360608110156100ce57600080fd5b8101908080359060200190929190803573ffffffffffffffffffffffffffffffffffffffff169060200190929190803590602001909291905050506102a3565b6040518082815260200191505060405180910390f35b34801561013057600080fd5b5061015d6004803603602081101561014757600080fd5b81019080803590602001909291905050506106c8565b6040518082815260200191505060405180910390f35b6101a96004803603604081101561018957600080fd5b8101908080359060200190929190803590602001909291905050506106d4565b6040518082815260200191505060405180910390f35b3480156101cb57600080fd5b506101d4610a7d565b6040518082815260200191505060405180910390f35b3480156101f657600080fd5b506101ff610a89565b6040518082815260200191505060405180910390f35b34801561022157600080fd5b5061022a610a8e565b604051808273ffffffffffffffffffffffffffffffffffffffff1673ffffffffffffffffffffffffffffffffffffffff16815260200191505060405180910390f35b34801561027857600080fd5b50610281610ab4565b6040518082815260200191505060405180910390f35b670de0b6b3a764000081565b600080600360009054906101000a900473ffffffffffffffffffffffffffffffffffffffff1673ffffffffffffffffffffffffffffffffffffffff166376a17510866040518263ffffffff1660e01b815260040180828152602001915050602060405180830381600087803b15801561031b57600080fd5b505af115801561032f573d6000803e3d6000fd5b505050506040513d602081101561034557600080fd5b810190808051906020019092919050505090506000610382620186a06103748487610ab990919063ffffffff16565b610b3f90919063ffffffff16565b90508473ffffffffffffffffffffffffffffffffffffffff1663a9059cbb600360009054906101000a900473ffffffffffffffffffffffffffffffffffffffff1673ffffffffffffffffffffffffffffffffffffffff16630ee2cb106040518163ffffffff1660e01b815260040160206040518083038186803b15801561040857600080fd5b505afa15801561041c573d6000803e3d6000fd5b505050506040513d602081101561043257600080fd5b8101908080519060200190929190505050836040518363ffffffff1660e01b8152600401808373ffffffffffffffffffffffffffffffffffffffff1673ffffffffffffffffffffffffffffffffffffffff16815260200182815260200192505050602060405180830381600087803b1580156104ad57600080fd5b505af11580156104c1573d6000803e3d6000fd5b505050506040513d60208110156104d757600080fd5b810190808051906020019092919050505050600360009054906101000a900473ffffffffffffffffffffffffffffffffffffffff1673ffffffffffffffffffffffffffffffffffffffff16638589ff45600360009054906101000a900473ffffffffffffffffffffffffffffffffffffffff1673ffffffffffffffffffffffffffffffffffffffff16630ee2cb106040518163ffffffff1660e01b815260040160206040518083038186803b15801561058f57600080fd5b505afa1580156105a3573d6000803e3d6000fd5b505050506040513d60208110156105b957600080fd5b8101908080519060200190929190505050338989866040518663ffffffff1660e01b8152600401808673ffffffffffffffffffffffffffffffffffffffff1673ffffffffffffffffffffffffffffffffffffffff1681526020018573ffffffffffffffffffffffffffffffffffffffff1673ffffffffffffffffffffffffffffffffffffffff1681526020018481526020018373ffffffffffffffffffffffffffffffffffffffff1673ffffffffffffffffffffffffffffffffffffffff16815260200182815260200195505050505050600060405180830381600087803b1580156106a457600080fd5b505af11580156106b8573d6000803e3d6000fd5b5050505085925050509392505050565b60008080915050919050565b600080600360009054906101000a900473ffffffffffffffffffffffffffffffffffffffff1673ffffffffffffffffffffffffffffffffffffffff166376a17510856040518263ffffffff1660e01b815260040180828152602001915050602060405180830381600087803b15801561074c57600080fd5b505af1158015610760573d6000803e3d6000fd5b505050506040513d602081101561077657600080fd5b8101908080519060200190929190505050905060006107b3620186a06107a58434610ab990919063ffffffff16565b610b3f90919063ffffffff16565b9050600360009054906101000a900473ffffffffffffffffffffffffffffffffffffffff1673ffffffffffffffffffffffffffffffffffffffff16630ee2cb106040518163ffffffff1660e01b815260040160206040518083038186803b15801561081d57600080fd5b505afa158015610831573d6000803e3d6000fd5b505050506040513d602081101561084757600080fd5b810190808051906020019092919050505073ffffffffffffffffffffffffffffffffffffffff166108fc829081150290604051600060405180830381858888f1935050505015801561089d573d6000803e3d6000fd5b50600360009054906101000a900473ffffffffffffffffffffffffffffffffffffffff1673ffffffffffffffffffffffffffffffffffffffff16638589ff45600360009054906101000a900473ffffffffffffffffffffffffffffffffffffffff1673ffffffffffffffffffffffffffffffffffffffff16630ee2cb106040518163ffffffff1660e01b815260040160206040518083038186803b15801561094457600080fd5b505afa158015610958573d6000803e3d6000fd5b505050506040513d602081101561096e57600080fd5b810190808051906020019092919050505033886000866040518663ffffffff1660e01b8152600401808673ffffffffffffffffffffffffffffffffffffffff1673ffffffffffffffffffffffffffffffffffffffff1681526020018573ffffffffffffffffffffffffffffffffffffffff1673ffffffffffffffffffffffffffffffffffffffff1681526020018481526020018373ffffffffffffffffffffffffffffffffffffffff1673ffffffffffffffffffffffffffffffffffffffff16815260200182815260200195505050505050600060405180830381600087803b158015610a5a57600080fd5b505af1158015610a6e573d6000803e3d6000fd5b50505050849250505092915050565b6702c68af0bb14000081565b600181565b600360009054906101000a900473ffffffffffffffffffffffffffffffffffffffff1681565b600881565b600080831415610acc5760009050610b39565b6000828402905082848281610add57fe5b0414610b34576040517f08c379a0000000000000000000000000000000000000000000000000000000008152600401808060200182810382526021815260200180610bc96021913960400191505060405180910390fd5b809150505b92915050565b6000808211610bb6576040517f08c379a000000000000000000000000000000000000000000000000000000000815260040180806020018281038252601a8152602001807f536166654d6174683a206469766973696f6e206279207a65726f00000000000081525060200191505060405180910390fd5b818381610bbf57fe5b0490509291505056fe536166654d6174683a206d756c7469706c69636174696f6e206f766572666c6f77a2646970667358221220f158f2aff4eadbb769b5245c68336934a1f823277691d30949ba8ac7d590fb7e64736f6c63430006020033",
  "source": "pragma solidity >=0.6.0 <0.8.0;\n\nimport \"./MousaiNFT.sol\";\n// import \"https://github.com/OpenZeppelin/openzeppelin-contracts/blob/v3.3.0/contracts/math/Math.sol\";\n// import \"https://github.com/OpenZeppelin/openzeppelin-contracts/blob/v3.3.0/contracts/math/SafeMath.sol\";\n// import \"https://github.com/OpenZeppelin/openzeppelin-contracts/blob/v3.3.0/contracts/token/ERC20/ERC20.sol\";\n\nimport \"@openzeppelin/contracts/math/Math.sol\";\n// import \"@openzeppelin/contracts/math/safeMath.sol\";\nimport \"@openzeppelin/contracts/token/ERC20/ERC20.sol\";\n\n// Sell NFTs on a decaying curve.\ncontract MarketPlace {\n    using SafeMath for uint256;\n\n    uint public constant FIRST_ID = 1;\n    uint public constant LAST_ID = 8;\n\n    uint public constant MIN_PRICE = 0.2 ether;\n    uint public constant MAX_PRICE = 1 ether;\n\n    uint256 currentId = FIRST_ID;\n    uint256 lastMintPrice = 0;\n    uint256 lastSoldAt = 0;\n\n    MousaiNFT public nftContract;\n\n    constructor (address mousaiAddress) public{\n        nftContract = MousaiNFT(mousaiAddress);\n    }\n\n   /* function checkRoyalties(address _token) internal  returns (bool) {\n        (bool success) = address(nftContract).call(abi.encodeWithSignature(\"royaltyInfo(uint256)\"));\n        return success;\n     }*/\n     \n     function buyNFT( uint _tokenId, address _tokenPaid, uint256 _amount) external  returns (uint256) {\n         uint256 royaltyPercentage = nftContract.getRoyaltyPercentage(_tokenId);\n         uint256 royalty = _amount.mul(royaltyPercentage).div(100000);\n         ERC20(_tokenPaid).transfer(nftContract.getCreator(), royalty);\n         nftContract.receivedRoyalties(nftContract.getCreator(), msg.sender, _tokenId, _tokenPaid, royalty);\n         return _tokenId;\n    }\n    \n    function buyNFTWithEth( uint _tokenId, uint256 _amount) external  payable returns (uint256) {\n        uint256 royaltyPercentage = nftContract.getRoyaltyPercentage(_tokenId);\n        uint256 royalty = msg.value.mul(royaltyPercentage).div(100000);\n        nftContract.getCreator().transfer(royalty);\n        nftContract.receivedRoyalties(nftContract.getCreator(), msg.sender, _tokenId, address(0), royalty);\n        return _tokenId;\n    }\n    \n    function getPriceToMint(uint256 idx) public virtual view returns (uint256) {\n       uint256 mintPrice;\n\n        return mintPrice;\n    }\n}",
  "sourcePath": "/Users/midmoussi/Projects/mousai/nft-hack/src/contracts/MarketPlace.sol",
  "compiler": {
    "name": "solc",
    "version": "0.6.2+commit.bacdbe57.Emscripten.clang"
  },
  "schemaVersion": "3.0.20",
  "updatedAt": "2021-03-21T15:26:37.932Z",
  "devdoc": {
    "methods": {}
  },
  "userdoc": {
    "methods": {}
  }
}