{
  "contractName": "MousaiNFT",
  "abi": [
    {
      "inputs": [
        {
          "internalType": "string",
          "name": "name",
          "type": "string"
        },
        {
          "internalType": "string",
          "name": "symbol",
          "type": "string"
        },
        {
          "internalType": "string",
          "name": "baseURI",
          "type": "string"
        },
        {
          "internalType": "uint256",
          "name": "_royaltyAmount",
          "type": "uint256"
        },
        {
          "internalType": "uint256",
          "name": "supplyCap",
          "type": "uint256"
        }
      ],
      "stateMutability": "nonpayable",
      "type": "constructor"
    },
    {
      "anonymous": false,
      "inputs": [
        {
          "indexed": true,
          "internalType": "address",
          "name": "owner",
          "type": "address"
        },
        {
          "indexed": true,
          "internalType": "address",
          "name": "approved",
          "type": "address"
        },
        {
          "indexed": true,
          "internalType": "uint256",
          "name": "tokenId",
          "type": "uint256"
        }
      ],
      "name": "Approval",
      "type": "event"
    },
    {
      "anonymous": false,
      "inputs": [
        {
          "indexed": true,
          "internalType": "address",
          "name": "owner",
          "type": "address"
        },
        {
          "indexed": true,
          "internalType": "address",
          "name": "operator",
          "type": "address"
        },
        {
          "indexed": false,
          "internalType": "bool",
          "name": "approved",
          "type": "bool"
        }
      ],
      "name": "ApprovalForAll",
      "type": "event"
    },
    {
      "anonymous": false,
      "inputs": [
        {
          "indexed": true,
          "internalType": "address",
          "name": "account",
          "type": "address"
        }
      ],
      "name": "MinterAdded",
      "type": "event"
    },
    {
      "anonymous": false,
      "inputs": [
        {
          "indexed": true,
          "internalType": "address",
          "name": "account",
          "type": "address"
        }
      ],
      "name": "MinterRemoved",
      "type": "event"
    },
    {
      "anonymous": false,
      "inputs": [
        {
          "indexed": true,
          "internalType": "address",
          "name": "previousOwner",
          "type": "address"
        },
        {
          "indexed": true,
          "internalType": "address",
          "name": "newOwner",
          "type": "address"
        }
      ],
      "name": "OwnershipTransferred",
      "type": "event"
    },
    {
      "anonymous": false,
      "inputs": [
        {
          "indexed": true,
          "internalType": "address",
          "name": "_royaltyRecipient",
          "type": "address"
        },
        {
          "indexed": true,
          "internalType": "address",
          "name": "_buyer",
          "type": "address"
        },
        {
          "indexed": true,
          "internalType": "uint256",
          "name": "_tokenId",
          "type": "uint256"
        },
        {
          "indexed": false,
          "internalType": "address",
          "name": "_tokenPaid",
          "type": "address"
        },
        {
          "indexed": false,
          "internalType": "uint256",
          "name": "_amount",
          "type": "uint256"
        }
      ],
      "name": "ReceivedRoyalties",
      "type": "event"
    },
    {
      "anonymous": false,
      "inputs": [
        {
          "indexed": true,
          "internalType": "address",
          "name": "from",
          "type": "address"
        },
        {
          "indexed": true,
          "internalType": "address",
          "name": "to",
          "type": "address"
        },
        {
          "indexed": true,
          "internalType": "uint256",
          "name": "tokenId",
          "type": "uint256"
        }
      ],
      "name": "Transfer",
      "type": "event"
    },
    {
      "inputs": [
        {
          "internalType": "address",
          "name": "account",
          "type": "address"
        }
      ],
      "name": "addMinter",
      "outputs": [],
      "stateMutability": "nonpayable",
      "type": "function"
    },
    {
      "inputs": [
        {
          "internalType": "address",
          "name": "to",
          "type": "address"
        },
        {
          "internalType": "uint256",
          "name": "tokenId",
          "type": "uint256"
        }
      ],
      "name": "approve",
      "outputs": [],
      "stateMutability": "nonpayable",
      "type": "function"
    },
    {
      "inputs": [
        {
          "internalType": "address",
          "name": "owner",
          "type": "address"
        }
      ],
      "name": "balanceOf",
      "outputs": [
        {
          "internalType": "uint256",
          "name": "",
          "type": "uint256"
        }
      ],
      "stateMutability": "view",
      "type": "function"
    },
    {
      "inputs": [],
      "name": "baseURI",
      "outputs": [
        {
          "internalType": "string",
          "name": "",
          "type": "string"
        }
      ],
      "stateMutability": "view",
      "type": "function"
    },
    {
      "inputs": [],
      "name": "creator",
      "outputs": [
        {
          "internalType": "address payable",
          "name": "",
          "type": "address"
        }
      ],
      "stateMutability": "view",
      "type": "function"
    },
    {
      "inputs": [
        {
          "internalType": "uint256",
          "name": "tokenId",
          "type": "uint256"
        }
      ],
      "name": "getApproved",
      "outputs": [
        {
          "internalType": "address",
          "name": "",
          "type": "address"
        }
      ],
      "stateMutability": "view",
      "type": "function"
    },
    {
      "inputs": [
        {
          "internalType": "address",
          "name": "owner",
          "type": "address"
        },
        {
          "internalType": "address",
          "name": "operator",
          "type": "address"
        }
      ],
      "name": "isApprovedForAll",
      "outputs": [
        {
          "internalType": "bool",
          "name": "",
          "type": "bool"
        }
      ],
      "stateMutability": "view",
      "type": "function"
    },
    {
      "inputs": [
        {
          "internalType": "address",
          "name": "account",
          "type": "address"
        }
      ],
      "name": "isMinter",
      "outputs": [
        {
          "internalType": "bool",
          "name": "",
          "type": "bool"
        }
      ],
      "stateMutability": "view",
      "type": "function"
    },
    {
      "inputs": [],
      "name": "name",
      "outputs": [
        {
          "internalType": "string",
          "name": "",
          "type": "string"
        }
      ],
      "stateMutability": "view",
      "type": "function"
    },
    {
      "inputs": [],
      "name": "owner",
      "outputs": [
        {
          "internalType": "address",
          "name": "",
          "type": "address"
        }
      ],
      "stateMutability": "view",
      "type": "function"
    },
    {
      "inputs": [
        {
          "internalType": "uint256",
          "name": "tokenId",
          "type": "uint256"
        }
      ],
      "name": "ownerOf",
      "outputs": [
        {
          "internalType": "address",
          "name": "",
          "type": "address"
        }
      ],
      "stateMutability": "view",
      "type": "function"
    },
    {
      "inputs": [],
      "name": "renounceMinter",
      "outputs": [],
      "stateMutability": "nonpayable",
      "type": "function"
    },
    {
      "inputs": [],
      "name": "renounceOwnership",
      "outputs": [],
      "stateMutability": "nonpayable",
      "type": "function"
    },
    {
      "inputs": [
        {
          "internalType": "address",
          "name": "from",
          "type": "address"
        },
        {
          "internalType": "address",
          "name": "to",
          "type": "address"
        },
        {
          "internalType": "uint256",
          "name": "tokenId",
          "type": "uint256"
        }
      ],
      "name": "safeTransferFrom",
      "outputs": [],
      "stateMutability": "nonpayable",
      "type": "function"
    },
    {
      "inputs": [
        {
          "internalType": "address",
          "name": "from",
          "type": "address"
        },
        {
          "internalType": "address",
          "name": "to",
          "type": "address"
        },
        {
          "internalType": "uint256",
          "name": "tokenId",
          "type": "uint256"
        },
        {
          "internalType": "bytes",
          "name": "_data",
          "type": "bytes"
        }
      ],
      "name": "safeTransferFrom",
      "outputs": [],
      "stateMutability": "nonpayable",
      "type": "function"
    },
    {
      "inputs": [
        {
          "internalType": "address",
          "name": "operator",
          "type": "address"
        },
        {
          "internalType": "bool",
          "name": "approved",
          "type": "bool"
        }
      ],
      "name": "setApprovalForAll",
      "outputs": [],
      "stateMutability": "nonpayable",
      "type": "function"
    },
    {
      "inputs": [
        {
          "internalType": "bytes4",
          "name": "interfaceId",
          "type": "bytes4"
        }
      ],
      "name": "supportsInterface",
      "outputs": [
        {
          "internalType": "bool",
          "name": "",
          "type": "bool"
        }
      ],
      "stateMutability": "view",
      "type": "function"
    },
    {
      "inputs": [],
      "name": "symbol",
      "outputs": [
        {
          "internalType": "string",
          "name": "",
          "type": "string"
        }
      ],
      "stateMutability": "view",
      "type": "function"
    },
    {
      "inputs": [
        {
          "internalType": "uint256",
          "name": "index",
          "type": "uint256"
        }
      ],
      "name": "tokenByIndex",
      "outputs": [
        {
          "internalType": "uint256",
          "name": "",
          "type": "uint256"
        }
      ],
      "stateMutability": "view",
      "type": "function"
    },
    {
      "inputs": [
        {
          "internalType": "address",
          "name": "owner",
          "type": "address"
        },
        {
          "internalType": "uint256",
          "name": "index",
          "type": "uint256"
        }
      ],
      "name": "tokenOfOwnerByIndex",
      "outputs": [
        {
          "internalType": "uint256",
          "name": "",
          "type": "uint256"
        }
      ],
      "stateMutability": "view",
      "type": "function"
    },
    {
      "inputs": [
        {
          "internalType": "uint256",
          "name": "tokenId",
          "type": "uint256"
        }
      ],
      "name": "tokenURI",
      "outputs": [
        {
          "internalType": "string",
          "name": "",
          "type": "string"
        }
      ],
      "stateMutability": "view",
      "type": "function"
    },
    {
      "inputs": [],
      "name": "totalSupply",
      "outputs": [
        {
          "internalType": "uint256",
          "name": "",
          "type": "uint256"
        }
      ],
      "stateMutability": "view",
      "type": "function"
    },
    {
      "inputs": [
        {
          "internalType": "address",
          "name": "from",
          "type": "address"
        },
        {
          "internalType": "address",
          "name": "to",
          "type": "address"
        },
        {
          "internalType": "uint256",
          "name": "tokenId",
          "type": "uint256"
        }
      ],
      "name": "transferFrom",
      "outputs": [],
      "stateMutability": "nonpayable",
      "type": "function"
    },
    {
      "inputs": [
        {
          "internalType": "address",
          "name": "newOwner",
          "type": "address"
        }
      ],
      "name": "transferOwnership",
      "outputs": [],
      "stateMutability": "nonpayable",
      "type": "function"
    },
    {
      "inputs": [
        {
          "internalType": "uint256",
          "name": "tokenId",
          "type": "uint256"
        },
        {
          "internalType": "uint256",
          "name": "_royaltyPercentage",
          "type": "uint256"
        }
      ],
      "name": "setTokenIdRoyalty",
      "outputs": [],
      "stateMutability": "nonpayable",
      "type": "function"
    },
    {
      "inputs": [
        {
          "internalType": "uint256",
          "name": "_royaltyPercentage",
          "type": "uint256"
        }
      ],
      "name": "setInitialRoyalty",
      "outputs": [],
      "stateMutability": "nonpayable",
      "type": "function"
    },
    {
      "inputs": [
        {
          "internalType": "uint256",
          "name": "_tokenId",
          "type": "uint256"
        }
      ],
      "name": "royaltyInfo",
      "outputs": [
        {
          "internalType": "address",
          "name": "receiver",
          "type": "address"
        },
        {
          "internalType": "uint256",
          "name": "amount",
          "type": "uint256"
        }
      ],
      "stateMutability": "nonpayable",
      "type": "function"
    },
    {
      "inputs": [],
      "name": "getCreator",
      "outputs": [
        {
          "internalType": "address payable",
          "name": "",
          "type": "address"
        }
      ],
      "stateMutability": "view",
      "type": "function"
    },
    {
      "inputs": [
        {
          "internalType": "uint256",
          "name": "_tokenId",
          "type": "uint256"
        }
      ],
      "name": "getRoyaltyPercentage",
      "outputs": [
        {
          "internalType": "uint256",
          "name": "",
          "type": "uint256"
        }
      ],
      "stateMutability": "nonpayable",
      "type": "function"
    },
    {
      "inputs": [
        {
          "internalType": "uint256",
          "name": "max",
          "type": "uint256"
        }
      ],
      "name": "setTokenSupplyCap",
      "outputs": [],
      "stateMutability": "nonpayable",
      "type": "function"
    },
    {
      "inputs": [
        {
          "internalType": "address",
          "name": "_to",
          "type": "address"
        },
        {
          "internalType": "uint256",
          "name": "_tokenId",
          "type": "uint256"
        }
      ],
      "name": "mintNFT",
      "outputs": [],
      "stateMutability": "nonpayable",
      "type": "function"
    },
    {
      "inputs": [
        {
          "internalType": "address",
          "name": "_to",
          "type": "address"
        }
      ],
      "name": "mint",
      "outputs": [
        {
          "internalType": "bool",
          "name": "",
          "type": "bool"
        }
      ],
      "stateMutability": "nonpayable",
      "type": "function"
    },
    {
      "inputs": [
        {
          "internalType": "address",
          "name": "_to",
          "type": "address"
        },
        {
          "internalType": "string",
          "name": "_tokenURI",
          "type": "string"
        }
      ],
      "name": "mint",
      "outputs": [
        {
          "internalType": "bool",
          "name": "",
          "type": "bool"
        }
      ],
      "stateMutability": "nonpayable",
      "type": "function"
    },
    {
      "inputs": [
        {
          "internalType": "address",
          "name": "_royaltyRecipient",
          "type": "address"
        },
        {
          "internalType": "address",
          "name": "_buyer",
          "type": "address"
        },
        {
          "internalType": "uint256",
          "name": "_tokenId",
          "type": "uint256"
        },
        {
          "internalType": "address",
          "name": "_tokenPaid",
          "type": "address"
        },
        {
          "internalType": "uint256",
          "name": "_amount",
          "type": "uint256"
        }
      ],
      "name": "receivedRoyalties",
      "outputs": [],
      "stateMutability": "nonpayable",
      "type": "function"
    }
  ],
  "bytecode": "0x60806040523480156200001157600080fd5b5060405162004be938038062004be9833981810160405260a08110156200003757600080fd5b81019080805160405193929190846401000000008211156200005857600080fd5b838201915060208201858111156200006f57600080fd5b82518660018202830111640100000000821117156200008d57600080fd5b8083526020830192505050908051906020019080838360005b83811015620000c3578082015181840152602081019050620000a6565b50505050905090810190601f168015620000f15780820380516001836020036101000a031916815260200191505b50604052602001805160405193929190846401000000008211156200011557600080fd5b838201915060208201858111156200012c57600080fd5b82518660018202830111640100000000821117156200014a57600080fd5b8083526020830192505050908051906020019080838360005b838110156200018057808201518184015260208101905062000163565b50505050905090810190601f168015620001ae5780820380516001836020036101000a031916815260200191505b5060405260200180516040519392919084640100000000821115620001d257600080fd5b83820191506020820185811115620001e957600080fd5b82518660018202830111640100000000821117156200020757600080fd5b8083526020830192505050908051906020019080838360005b838110156200023d57808201518184015260208101905062000220565b50505050905090810190601f1680156200026b5780820380516001836020036101000a031916815260200191505b5060405260200180519060200190929190805190602001909291905050506040518060400160405280600681526020017f4d6f7553616900000000000000000000000000000000000000000000000000008152506040518060400160405280600681526020017f4d4f5553414900000000000000000000000000000000000000000000000000008152506200030d6301ffc9a760e01b620004d860201b60201c565b8160069080519060200190620003259291906200094f565b5080600790805190602001906200033e9291906200094f565b50620003576380ac58cd60e01b620004d860201b60201c565b6200036f635b5e139f60e01b620004d860201b60201c565b6200038763780e9d6360e01b620004d860201b60201c565b50506200039a33620005e160201b60201c565b6000620003ac6200064260201b60201c565b905080600b60006101000a81548173ffffffffffffffffffffffffffffffffffffffff021916908373ffffffffffffffffffffffffffffffffffffffff1602179055508073ffffffffffffffffffffffffffffffffffffffff16600073ffffffffffffffffffffffffffffffffffffffff167f8be0079c531659141344cd1fd0a4f28419497f9722a3daafe3b4186f6b6457e060405160405180910390a3506200045c836200064a60201b60201c565b6200046d826200066660201b60201c565b33600e60006101000a81548173ffffffffffffffffffffffffffffffffffffffff021916908373ffffffffffffffffffffffffffffffffffffffff16021790555080600c81905550620004cd634b7f2c2d60e01b620004d860201b60201c565b5050505050620009fe565b63ffffffff60e01b817bffffffffffffffffffffffffffffffffffffffffffffffffffffffff1916141562000575576040517f08c379a000000000000000000000000000000000000000000000000000000000815260040180806020018281038252601c8152602001807f4552433136353a20696e76616c696420696e746572666163652069640000000081525060200191505060405180910390fd5b6001600080837bffffffffffffffffffffffffffffffffffffffffffffffffffffffff19167bffffffffffffffffffffffffffffffffffffffffffffffffffffffff1916815260200190815260200160002060006101000a81548160ff02191690831515021790555050565b620005fc81600a6200076160201b620034d51790919060201c565b8073ffffffffffffffffffffffffffffffffffffffff167f6ae172837ea30b801fbfcdd4108aa1d5bf8ff775444fd70256b44e6bf3dfc3f660405160405180910390a250565b600033905090565b8060099080519060200190620006629291906200094f565b5050565b620006766200064260201b60201c565b73ffffffffffffffffffffffffffffffffffffffff166200069c6200084560201b60201c565b73ffffffffffffffffffffffffffffffffffffffff161462000726576040517f08c379a00000000000000000000000000000000000000000000000000000000081526004018080602001828103825260208152602001807f4f776e61626c653a2063616c6c6572206973206e6f7420746865206f776e657281525060200191505060405180910390fd5b60008090505b600c548110156200075d5781600d60008381526020019081526020016000208190555080806001019150506200072c565b5050565b6200077382826200086f60201b60201c565b15620007e7576040517f08c379a000000000000000000000000000000000000000000000000000000000815260040180806020018281038252601f8152602001807f526f6c65733a206163636f756e7420616c72656164792068617320726f6c650081525060200191505060405180910390fd5b60018260000160008373ffffffffffffffffffffffffffffffffffffffff1673ffffffffffffffffffffffffffffffffffffffff16815260200190815260200160002060006101000a81548160ff0219169083151502179055505050565b6000600b60009054906101000a900473ffffffffffffffffffffffffffffffffffffffff16905090565b60008073ffffffffffffffffffffffffffffffffffffffff168273ffffffffffffffffffffffffffffffffffffffff161415620008f8576040517f08c379a000000000000000000000000000000000000000000000000000000000815260040180806020018281038252602281526020018062004bc76022913960400191505060405180910390fd5b8260000160008373ffffffffffffffffffffffffffffffffffffffff1673ffffffffffffffffffffffffffffffffffffffff16815260200190815260200160002060009054906101000a900460ff16905092915050565b828054600181600116156101000203166002900490600052602060002090601f016020900481019282601f106200099257805160ff1916838001178555620009c3565b82800160010185558215620009c3579182015b82811115620009c2578251825591602001919060010190620009a5565b5b509050620009d29190620009d6565b5090565b620009fb91905b80821115620009f7576000816000905550600101620009dd565b5090565b90565b6141b98062000a0e6000396000f3fe608060405234801561001057600080fd5b50600436106102065760003560e01c80636c0360eb1161011a57806398650275116100ad578063c87b56dd1161007c578063c87b56dd14610c18578063cef6d36814610cbf578063d0def52114610d34578063e985e9c514610e27578063f2fde38b14610ea357610206565b80639865027514610a5d578063a22cb46514610a67578063aa271e1a14610ab7578063b88d4fde14610b1357610206565b80638589ff45116100e95780638589ff45146108b45780638da5cb5b1461094c57806395d89b4114610996578063983b2d5614610a1957610206565b80636c0360eb1461078d57806370a0823114610810578063715018a61461086857806376a175101461087257610206565b806323b872dd1161019d5780634c3e64d61161016c5780634c3e64d61461061b5780634f6ccce71461065357806351e9e3d3146106955780636352211e146106c35780636a6278421461073157610206565b806323b872dd1461048f5780632f745c59146104fd5780633c168eab1461055f57806342842e0e146105ad57610206565b806309411f30116101d957806309411f30146103ab578063095ea7b3146103d95780630ee2cb101461042757806318160ddd1461047157610206565b806301ffc9a71461020b57806302d05d3f1461027057806306fdde03146102ba578063081812fc1461033d575b600080fd5b6102566004803603602081101561022157600080fd5b8101908080357bffffffffffffffffffffffffffffffffffffffffffffffffffffffff19169060200190929190505050610ee7565b604051808215151515815260200191505060405180910390f35b610278610f4e565b604051808273ffffffffffffffffffffffffffffffffffffffff1673ffffffffffffffffffffffffffffffffffffffff16815260200191505060405180910390f35b6102c2610f74565b6040518080602001828103825283818151815260200191508051906020019080838360005b838110156103025780820151818401526020810190506102e7565b50505050905090810190601f16801561032f5780820380516001836020036101000a031916815260200191505b509250505060405180910390f35b6103696004803603602081101561035357600080fd5b8101908080359060200190929190505050611016565b604051808273ffffffffffffffffffffffffffffffffffffffff1673ffffffffffffffffffffffffffffffffffffffff16815260200191505060405180910390f35b6103d7600480360360208110156103c157600080fd5b81019080803590602001909291905050506110b1565b005b610425600480360360408110156103ef57600080fd5b81019080803573ffffffffffffffffffffffffffffffffffffffff1690602001909291908035906020019092919050505061116a565b005b61042f6112ae565b604051808273ffffffffffffffffffffffffffffffffffffffff1673ffffffffffffffffffffffffffffffffffffffff16815260200191505060405180910390f35b6104796112d8565b6040518082815260200191505060405180910390f35b6104fb600480360360608110156104a557600080fd5b81019080803573ffffffffffffffffffffffffffffffffffffffff169060200190929190803573ffffffffffffffffffffffffffffffffffffffff169060200190929190803590602001909291905050506112e9565b005b6105496004803603604081101561051357600080fd5b81019080803573ffffffffffffffffffffffffffffffffffffffff1690602001909291908035906020019092919050505061135f565b6040518082815260200191505060405180910390f35b6105ab6004803603604081101561057557600080fd5b81019080803573ffffffffffffffffffffffffffffffffffffffff169060200190929190803590602001909291905050506113ba565b005b610619600480360360608110156105c357600080fd5b81019080803573ffffffffffffffffffffffffffffffffffffffff169060200190929190803573ffffffffffffffffffffffffffffffffffffffff169060200190929190803590602001909291905050506114aa565b005b6106516004803603604081101561063157600080fd5b8101908080359060200190929190803590602001909291905050506114ca565b005b61067f6004803603602081101561066957600080fd5b810190808035906020019092919050505061160d565b6040518082815260200191505060405180910390f35b6106c1600480360360208110156106ab57600080fd5b8101908080359060200190929190505050611630565b005b6106ef600480360360208110156106d957600080fd5b8101908080359060200190929190505050611718565b604051808273ffffffffffffffffffffffffffffffffffffffff1673ffffffffffffffffffffffffffffffffffffffff16815260200191505060405180910390f35b6107736004803603602081101561074757600080fd5b81019080803573ffffffffffffffffffffffffffffffffffffffff16906020019092919050505061174f565b604051808215151515815260200191505060405180910390f35b61079561184e565b6040518080602001828103825283818151815260200191508051906020019080838360005b838110156107d55780820151818401526020810190506107ba565b50505050905090810190601f1680156108025780820380516001836020036101000a031916815260200191505b509250505060405180910390f35b6108526004803603602081101561082657600080fd5b81019080803573ffffffffffffffffffffffffffffffffffffffff1690602001909291905050506118f0565b6040518082815260200191505060405180910390f35b6108706119c5565b005b61089e6004803603602081101561088857600080fd5b8101908080359060200190929190505050611b35565b6040518082815260200191505060405180910390f35b61094a600480360360a08110156108ca57600080fd5b81019080803573ffffffffffffffffffffffffffffffffffffffff169060200190929190803573ffffffffffffffffffffffffffffffffffffffff16906020019092919080359060200190929190803573ffffffffffffffffffffffffffffffffffffffff16906020019092919080359060200190929190505050611b52565b005b610954611bf3565b604051808273ffffffffffffffffffffffffffffffffffffffff1673ffffffffffffffffffffffffffffffffffffffff16815260200191505060405180910390f35b61099e611c1d565b6040518080602001828103825283818151815260200191508051906020019080838360005b838110156109de5780820151818401526020810190506109c3565b50505050905090810190601f168015610a0b5780820380516001836020036101000a031916815260200191505b509250505060405180910390f35b610a5b60048036036020811015610a2f57600080fd5b81019080803573ffffffffffffffffffffffffffffffffffffffff169060200190929190505050611cbf565b005b610a65611d29565b005b610ab560048036036040811015610a7d57600080fd5b81019080803573ffffffffffffffffffffffffffffffffffffffff169060200190929190803515159060200190929190505050611d34565b005b610af960048036036020811015610acd57600080fd5b81019080803573ffffffffffffffffffffffffffffffffffffffff169060200190929190505050611eec565b604051808215151515815260200191505060405180910390f35b610c1660048036036080811015610b2957600080fd5b81019080803573ffffffffffffffffffffffffffffffffffffffff169060200190929190803573ffffffffffffffffffffffffffffffffffffffff1690602001909291908035906020019092919080359060200190640100000000811115610b9057600080fd5b820183602082011115610ba257600080fd5b80359060200191846001830284011164010000000083111715610bc457600080fd5b91908080601f016020809104026020016040519081016040528093929190818152602001838380828437600081840152601f19601f820116905080830192505050505050509192919290505050611f09565b005b610c4460048036036020811015610c2e57600080fd5b8101908080359060200190929190505050611f81565b6040518080602001828103825283818151815260200191508051906020019080838360005b83811015610c84578082015181840152602081019050610c69565b50505050905090810190601f168015610cb15780820380516001836020036101000a031916815260200191505b509250505060405180910390f35b610ceb60048036036020811015610cd557600080fd5b8101908080359060200190929190505050612252565b604051808373ffffffffffffffffffffffffffffffffffffffff1673ffffffffffffffffffffffffffffffffffffffff1681526020018281526020019250505060405180910390f35b610e0d60048036036040811015610d4a57600080fd5b81019080803573ffffffffffffffffffffffffffffffffffffffff16906020019092919080359060200190640100000000811115610d8757600080fd5b820183602082011115610d9957600080fd5b80359060200191846001830284011164010000000083111715610dbb57600080fd5b91908080601f016020809104026020016040519081016040528093929190818152602001838380828437600081840152601f19601f820116905080830192505050505050509192919290505050612298565b604051808215151515815260200191505060405180910390f35b610e8960048036036040811015610e3d57600080fd5b81019080803573ffffffffffffffffffffffffffffffffffffffff169060200190929190803573ffffffffffffffffffffffffffffffffffffffff16906020019092919050505061230c565b604051808215151515815260200191505060405180910390f35b610ee560048036036020811015610eb957600080fd5b81019080803573ffffffffffffffffffffffffffffffffffffffff1690602001909291905050506123a0565b005b6000806000837bffffffffffffffffffffffffffffffffffffffffffffffffffffffff19167bffffffffffffffffffffffffffffffffffffffffffffffffffffffff1916815260200190815260200160002060009054906101000a900460ff169050919050565b600e60009054906101000a900473ffffffffffffffffffffffffffffffffffffffff1681565b606060068054600181600116156101000203166002900480601f01602080910402602001604051908101604052809291908181526020018280546001816001161561010002031660029004801561100c5780601f10610fe15761010080835404028352916020019161100c565b820191906000526020600020905b815481529060010190602001808311610fef57829003601f168201915b5050505050905090565b600061102182612595565b611076576040517f08c379a000000000000000000000000000000000000000000000000000000000815260040180806020018281038252602c815260200180614060602c913960400191505060405180910390fd5b6004600083815260200190815260200160002060009054906101000a900473ffffffffffffffffffffffffffffffffffffffff169050919050565b6110b96125b2565b73ffffffffffffffffffffffffffffffffffffffff166110d7611bf3565b73ffffffffffffffffffffffffffffffffffffffff1614611160576040517f08c379a00000000000000000000000000000000000000000000000000000000081526004018080602001828103825260208152602001807f4f776e61626c653a2063616c6c6572206973206e6f7420746865206f776e657281525060200191505060405180910390fd5b80600c8190555050565b600061117582611718565b90508073ffffffffffffffffffffffffffffffffffffffff168373ffffffffffffffffffffffffffffffffffffffff1614156111fc576040517f08c379a00000000000000000000000000000000000000000000000000000000081526004018080602001828103825260218152602001806141326021913960400191505060405180910390fd5b8073ffffffffffffffffffffffffffffffffffffffff1661121b6125b2565b73ffffffffffffffffffffffffffffffffffffffff16148061124a5750611249816112446125b2565b61230c565b5b61129f576040517f08c379a0000000000000000000000000000000000000000000000000000000008152600401808060200182810382526038815260200180613f626038913960400191505060405180910390fd5b6112a983836125ba565b505050565b6000600e60009054906101000a900473ffffffffffffffffffffffffffffffffffffffff16905090565b60006112e46002612673565b905090565b6112fa6112f46125b2565b82612688565b61134f576040517f08c379a00000000000000000000000000000000000000000000000000000000081526004018080602001828103825260318152602001806141536031913960400191505060405180910390fd5b61135a83838361277c565b505050565b60006113b282600160008673ffffffffffffffffffffffffffffffffffffffff1673ffffffffffffffffffffffffffffffffffffffff1681526020019081526020016000206129bf90919063ffffffff16565b905092915050565b6113c333611eec565b611418576040517f08c379a0000000000000000000000000000000000000000000000000000000008152600401808060200182810382526030815260200180613fed6030913960400191505060405180910390fd5b600c54811115801561142a5750600081115b61149c576040517f08c379a000000000000000000000000000000000000000000000000000000000815260040180806020018281038252600f8152602001807f496e76616c696420746f6b656e4964000000000000000000000000000000000081525060200191505060405180910390fd5b6114a682826129d9565b5050565b6114c583838360405180602001604052806000815250611f09565b505050565b6114d26125b2565b73ffffffffffffffffffffffffffffffffffffffff166114f0611bf3565b73ffffffffffffffffffffffffffffffffffffffff1614611579576040517f08c379a00000000000000000000000000000000000000000000000000000000081526004018080602001828103825260208152602001807f4f776e61626c653a2063616c6c6572206973206e6f7420746865206f776e657281525060200191505060405180910390fd5b600c548211156115f1576040517f08c379a000000000000000000000000000000000000000000000000000000000815260040180806020018281038252600f8152602001807f696e76616c696420746f6b656e4964000000000000000000000000000000000081525060200191505060405180910390fd5b80600d6000848152602001908152602001600020819055505050565b6000806116248360026129f790919063ffffffff16565b50905080915050919050565b6116386125b2565b73ffffffffffffffffffffffffffffffffffffffff16611656611bf3565b73ffffffffffffffffffffffffffffffffffffffff16146116df576040517f08c379a00000000000000000000000000000000000000000000000000000000081526004018080602001828103825260208152602001807f4f776e61626c653a2063616c6c6572206973206e6f7420746865206f776e657281525060200191505060405180910390fd5b60008090505b600c548110156117145781600d60008381526020019081526020016000208190555080806001019150506116e5565b5050565b600061174882604051806060016040528060298152602001613fc4602991396002612a269092919063ffffffff16565b9050919050565b600061175a33611eec565b6117af576040517f08c379a0000000000000000000000000000000000000000000000000000000008152600401808060200182810382526030815260200180613fed6030913960400191505060405180910390fd5b60006117b96112d8565b1161182c576040517f08c379a000000000000000000000000000000000000000000000000000000000815260040180806020018281038252600c8152602001807f4e6f204d6f757361694e4654000000000000000000000000000000000000000081525060200191505060405180910390fd5b6118458261184061183b6112d8565b611f81565b612a45565b60019050919050565b606060098054600181600116156101000203166002900480601f0160208091040260200160405190810160405280929190818152602001828054600181600116156101000203166002900480156118e65780601f106118bb576101008083540402835291602001916118e6565b820191906000526020600020905b8154815290600101906020018083116118c957829003601f168201915b5050505050905090565b60008073ffffffffffffffffffffffffffffffffffffffff168273ffffffffffffffffffffffffffffffffffffffff161415611977576040517f08c379a000000000000000000000000000000000000000000000000000000000815260040180806020018281038252602a815260200180613f9a602a913960400191505060405180910390fd5b6119be600160008473ffffffffffffffffffffffffffffffffffffffff1673ffffffffffffffffffffffffffffffffffffffff168152602001908152602001600020612b59565b9050919050565b6119cd6125b2565b73ffffffffffffffffffffffffffffffffffffffff166119eb611bf3565b73ffffffffffffffffffffffffffffffffffffffff1614611a74576040517f08c379a00000000000000000000000000000000000000000000000000000000081526004018080602001828103825260208152602001807f4f776e61626c653a2063616c6c6572206973206e6f7420746865206f776e657281525060200191505060405180910390fd5b600073ffffffffffffffffffffffffffffffffffffffff16600b60009054906101000a900473ffffffffffffffffffffffffffffffffffffffff1673ffffffffffffffffffffffffffffffffffffffff167f8be0079c531659141344cd1fd0a4f28419497f9722a3daafe3b4186f6b6457e060405160405180910390a36000600b60006101000a81548173ffffffffffffffffffffffffffffffffffffffff021916908373ffffffffffffffffffffffffffffffffffffffff160217905550565b6000600d6000838152602001908152602001600020549050919050565b828473ffffffffffffffffffffffffffffffffffffffff168673ffffffffffffffffffffffffffffffffffffffff167f096a55ec842afaa98cb78cb0352921e73c0d1caa9136309fa9c07f13f4a39a608585604051808373ffffffffffffffffffffffffffffffffffffffff1673ffffffffffffffffffffffffffffffffffffffff1681526020018281526020019250505060405180910390a45050505050565b6000600b60009054906101000a900473ffffffffffffffffffffffffffffffffffffffff16905090565b606060078054600181600116156101000203166002900480601f016020809104026020016040519081016040528092919081815260200182805460018160011615610100020316600290048015611cb55780601f10611c8a57610100808354040283529160200191611cb5565b820191906000526020600020905b815481529060010190602001808311611c9857829003601f168201915b5050505050905090565b611cc833611eec565b611d1d576040517f08c379a0000000000000000000000000000000000000000000000000000000008152600401808060200182810382526030815260200180613fed6030913960400191505060405180910390fd5b611d2681612b6e565b50565b611d3233612bc8565b565b611d3c6125b2565b73ffffffffffffffffffffffffffffffffffffffff168273ffffffffffffffffffffffffffffffffffffffff161415611ddd576040517f08c379a00000000000000000000000000000000000000000000000000000000081526004018080602001828103825260198152602001807f4552433732313a20617070726f766520746f2063616c6c65720000000000000081525060200191505060405180910390fd5b8060056000611dea6125b2565b73ffffffffffffffffffffffffffffffffffffffff1673ffffffffffffffffffffffffffffffffffffffff16815260200190815260200160002060008473ffffffffffffffffffffffffffffffffffffffff1673ffffffffffffffffffffffffffffffffffffffff16815260200190815260200160002060006101000a81548160ff0219169083151502179055508173ffffffffffffffffffffffffffffffffffffffff16611e976125b2565b73ffffffffffffffffffffffffffffffffffffffff167f17307eab39ab6107e8899845ad3d59bd9653f200f220920489ca2b5937696c3183604051808215151515815260200191505060405180910390a35050565b6000611f0282600a612c2290919063ffffffff16565b9050919050565b611f1a611f146125b2565b83612688565b611f6f576040517f08c379a00000000000000000000000000000000000000000000000000000000081526004018080602001828103825260318152602001806141536031913960400191505060405180910390fd5b611f7b84848484612d00565b50505050565b6060611f8c82612595565b611fe1576040517f08c379a000000000000000000000000000000000000000000000000000000000815260040180806020018281038252602f815260200180614103602f913960400191505060405180910390fd5b6060600860008481526020019081526020016000208054600181600116156101000203166002900480601f01602080910402602001604051908101604052809291908181526020018280546001816001161561010002031660029004801561208a5780601f1061205f5761010080835404028352916020019161208a565b820191906000526020600020905b81548152906001019060200180831161206d57829003601f168201915b50505050509050606061209b61184e565b90506000815114156120b157819250505061224d565b6000825111156121825780826040516020018083805190602001908083835b602083106120f357805182526020820191506020810190506020830392506120d0565b6001836020036101000a03801982511681845116808217855250505050505090500182805190602001908083835b602083106121445780518252602082019150602081019050602083039250612121565b6001836020036101000a038019825116818451168082178552505050505050905001925050506040516020818303038152906040529250505061224d565b8061218c85612d72565b6040516020018083805190602001908083835b602083106121c2578051825260208201915060208101905060208303925061219f565b6001836020036101000a03801982511681845116808217855250505050505090500182805190602001908083835b6020831061221357805182526020820191506020810190506020830392506121f0565b6001836020036101000a03801982511681845116808217855250505050505090500192505050604051602081830303815290604052925050505b919050565b600080600e60009054906101000a900473ffffffffffffffffffffffffffffffffffffffff16600d60008581526020019081526020016000205481915091509150915091565b60006122a333611eec565b6122f8576040517f08c379a0000000000000000000000000000000000000000000000000000000008152600401808060200182810382526030815260200180613fed6030913960400191505060405180910390fd5b6123028383612a45565b6001905092915050565b6000600560008473ffffffffffffffffffffffffffffffffffffffff1673ffffffffffffffffffffffffffffffffffffffff16815260200190815260200160002060008373ffffffffffffffffffffffffffffffffffffffff1673ffffffffffffffffffffffffffffffffffffffff16815260200190815260200160002060009054906101000a900460ff16905092915050565b6123a86125b2565b73ffffffffffffffffffffffffffffffffffffffff166123c6611bf3565b73ffffffffffffffffffffffffffffffffffffffff161461244f576040517f08c379a00000000000000000000000000000000000000000000000000000000081526004018080602001828103825260208152602001807f4f776e61626c653a2063616c6c6572206973206e6f7420746865206f776e657281525060200191505060405180910390fd5b600073ffffffffffffffffffffffffffffffffffffffff168173ffffffffffffffffffffffffffffffffffffffff1614156124d5576040517f08c379a0000000000000000000000000000000000000000000000000000000008152600401808060200182810382526026815260200180613ec66026913960400191505060405180910390fd5b8073ffffffffffffffffffffffffffffffffffffffff16600b60009054906101000a900473ffffffffffffffffffffffffffffffffffffffff1673ffffffffffffffffffffffffffffffffffffffff167f8be0079c531659141344cd1fd0a4f28419497f9722a3daafe3b4186f6b6457e060405160405180910390a380600b60006101000a81548173ffffffffffffffffffffffffffffffffffffffff021916908373ffffffffffffffffffffffffffffffffffffffff16021790555050565b60006125ab826002612ea290919063ffffffff16565b9050919050565b600033905090565b816004600083815260200190815260200160002060006101000a81548173ffffffffffffffffffffffffffffffffffffffff021916908373ffffffffffffffffffffffffffffffffffffffff160217905550808273ffffffffffffffffffffffffffffffffffffffff1661262d83611718565b73ffffffffffffffffffffffffffffffffffffffff167f8c5be1e5ebec7d5bd14f71427d1e84f3dd0314c0f7b2291e5b200ac8c7c3b92560405160405180910390a45050565b600061268182600001612ebc565b9050919050565b600061269382612595565b6126e8576040517f08c379a000000000000000000000000000000000000000000000000000000000815260040180806020018281038252602c815260200180613f36602c913960400191505060405180910390fd5b60006126f383611718565b90508073ffffffffffffffffffffffffffffffffffffffff168473ffffffffffffffffffffffffffffffffffffffff16148061276257508373ffffffffffffffffffffffffffffffffffffffff1661274a84611016565b73ffffffffffffffffffffffffffffffffffffffff16145b806127735750612772818561230c565b5b91505092915050565b8273ffffffffffffffffffffffffffffffffffffffff1661279c82611718565b73ffffffffffffffffffffffffffffffffffffffff1614612808576040517f08c379a00000000000000000000000000000000000000000000000000000000081526004018080602001828103825260298152602001806140da6029913960400191505060405180910390fd5b600073ffffffffffffffffffffffffffffffffffffffff168273ffffffffffffffffffffffffffffffffffffffff16141561288e576040517f08c379a0000000000000000000000000000000000000000000000000000000008152600401808060200182810382526024815260200180613eec6024913960400191505060405180910390fd5b612899838383612ecd565b6128a46000826125ba565b6128f581600160008673ffffffffffffffffffffffffffffffffffffffff1673ffffffffffffffffffffffffffffffffffffffff168152602001908152602001600020612ed290919063ffffffff16565b5061294781600160008573ffffffffffffffffffffffffffffffffffffffff1673ffffffffffffffffffffffffffffffffffffffff168152602001908152602001600020612eec90919063ffffffff16565b5061295e81836002612f069092919063ffffffff16565b50808273ffffffffffffffffffffffffffffffffffffffff168473ffffffffffffffffffffffffffffffffffffffff167fddf252ad1be2c89b69c2b068fc378daa952ba7f163c4a11628f55a4df523b3ef60405160405180910390a4505050565b60006129ce8360000183612f3b565b60001c905092915050565b6129f3828260405180602001604052806000815250612fbe565b5050565b600080600080612a0a866000018661302f565b915091508160001c8160001c8090509350935050509250929050565b6000612a39846000018460001b846130c8565b60001c90509392505050565b612a4e33611eec565b612aa3576040517f08c379a0000000000000000000000000000000000000000000000000000000008152600401808060200182810382526030815260200180613fed6030913960400191505060405180910390fd5b600c54612aae6112d8565b10612b21576040517f08c379a000000000000000000000000000000000000000000000000000000000815260040180806020018281038252600c8152602001807f416c6c20736f6c64206f7574000000000000000000000000000000000000000081525060200191505060405180910390fd5b6000612b3e6001612b306112d8565b6131be90919063ffffffff16565b9050612b4a8382613246565b612b54818361343a565b505050565b6000612b67826000016134c4565b9050919050565b612b8281600a6134d590919063ffffffff16565b8073ffffffffffffffffffffffffffffffffffffffff167f6ae172837ea30b801fbfcdd4108aa1d5bf8ff775444fd70256b44e6bf3dfc3f660405160405180910390a250565b612bdc81600a6135b090919063ffffffff16565b8073ffffffffffffffffffffffffffffffffffffffff167fe94479a9f7e1952cc78f2d6baab678adc1b772d936c6583def489e524cb6669260405160405180910390a250565b60008073ffffffffffffffffffffffffffffffffffffffff168273ffffffffffffffffffffffffffffffffffffffff161415612ca9576040517f08c379a00000000000000000000000000000000000000000000000000000000081526004018080602001828103825260228152602001806140b86022913960400191505060405180910390fd5b8260000160008373ffffffffffffffffffffffffffffffffffffffff1673ffffffffffffffffffffffffffffffffffffffff16815260200190815260200160002060009054906101000a900460ff16905092915050565b612d0b84848461277c565b612d178484848461366d565b612d6c576040517f08c379a0000000000000000000000000000000000000000000000000000000008152600401808060200182810382526032815260200180613e946032913960400191505060405180910390fd5b50505050565b60606000821415612dba576040518060400160405280600181526020017f30000000000000000000000000000000000000000000000000000000000000008152509050612e9d565b600082905060005b60008214612de4578080600101915050600a8281612ddc57fe5b049150612dc2565b6060816040519080825280601f01601f191660200182016040528015612e195781602001600182028038833980820191505090505b50905060006001830390508593505b60008414612e9557600a8481612e3a57fe5b0660300160f81b82828060019003935081518110612e5457fe5b60200101907effffffffffffffffffffffffffffffffffffffffffffffffffffffffffffff1916908160001a905350600a8481612e8d57fe5b049350612e28565b819450505050505b919050565b6000612eb4836000018360001b6138b2565b905092915050565b600081600001805490509050919050565b505050565b6000612ee4836000018360001b6138d5565b905092915050565b6000612efe836000018360001b6139bd565b905092915050565b6000612f32846000018460001b8473ffffffffffffffffffffffffffffffffffffffff1660001b613a2d565b90509392505050565b600081836000018054905011612f9c576040517f08c379a0000000000000000000000000000000000000000000000000000000008152600401808060200182810382526022815260200180613e726022913960400191505060405180910390fd5b826000018281548110612fab57fe5b9060005260206000200154905092915050565b612fc88383613246565b612fd5600084848461366d565b61302a576040517f08c379a0000000000000000000000000000000000000000000000000000000008152600401808060200182810382526032815260200180613e946032913960400191505060405180910390fd5b505050565b60008082846000018054905011613091576040517f08c379a000000000000000000000000000000000000000000000000000000000815260040180806020018281038252602281526020018061403e6022913960400191505060405180910390fd5b60008460000184815481106130a257fe5b906000526020600020906002020190508060000154816001015492509250509250929050565b6000808460010160008581526020019081526020016000205490506000811415839061318f576040517f08c379a00000000000000000000000000000000000000000000000000000000081526004018080602001828103825283818151815260200191508051906020019080838360005b83811015613154578082015181840152602081019050613139565b50505050905090810190601f1680156131815780820380516001836020036101000a031916815260200191505b509250505060405180910390fd5b508460000160018203815481106131a257fe5b9060005260206000209060020201600101549150509392505050565b60008082840190508381101561323c576040517f08c379a000000000000000000000000000000000000000000000000000000000815260040180806020018281038252601b8152602001807f536166654d6174683a206164646974696f6e206f766572666c6f77000000000081525060200191505060405180910390fd5b8091505092915050565b600073ffffffffffffffffffffffffffffffffffffffff168273ffffffffffffffffffffffffffffffffffffffff1614156132e9576040517f08c379a00000000000000000000000000000000000000000000000000000000081526004018080602001828103825260208152602001807f4552433732313a206d696e7420746f20746865207a65726f206164647265737381525060200191505060405180910390fd5b6132f281612595565b15613365576040517f08c379a000000000000000000000000000000000000000000000000000000000815260040180806020018281038252601c8152602001807f4552433732313a20746f6b656e20616c7265616479206d696e7465640000000081525060200191505060405180910390fd5b61337160008383612ecd565b6133c281600160008573ffffffffffffffffffffffffffffffffffffffff1673ffffffffffffffffffffffffffffffffffffffff168152602001908152602001600020612eec90919063ffffffff16565b506133d981836002612f069092919063ffffffff16565b50808273ffffffffffffffffffffffffffffffffffffffff16600073ffffffffffffffffffffffffffffffffffffffff167fddf252ad1be2c89b69c2b068fc378daa952ba7f163c4a11628f55a4df523b3ef60405160405180910390a45050565b61344382612595565b613498576040517f08c379a000000000000000000000000000000000000000000000000000000000815260040180806020018281038252602c81526020018061408c602c913960400191505060405180910390fd5b806008600084815260200190815260200160002090805190602001906134bf929190613dcc565b505050565b600081600001805490509050919050565b6134df8282612c22565b15613552576040517f08c379a000000000000000000000000000000000000000000000000000000000815260040180806020018281038252601f8152602001807f526f6c65733a206163636f756e7420616c72656164792068617320726f6c650081525060200191505060405180910390fd5b60018260000160008373ffffffffffffffffffffffffffffffffffffffff1673ffffffffffffffffffffffffffffffffffffffff16815260200190815260200160002060006101000a81548160ff0219169083151502179055505050565b6135ba8282612c22565b61360f576040517f08c379a000000000000000000000000000000000000000000000000000000000815260040180806020018281038252602181526020018061401d6021913960400191505060405180910390fd5b60008260000160008373ffffffffffffffffffffffffffffffffffffffff1673ffffffffffffffffffffffffffffffffffffffff16815260200190815260200160002060006101000a81548160ff0219169083151502179055505050565b600061368e8473ffffffffffffffffffffffffffffffffffffffff16613b09565b61369b57600190506138aa565b606061383163150b7a0260e01b6136b06125b2565b888787604051602401808573ffffffffffffffffffffffffffffffffffffffff1673ffffffffffffffffffffffffffffffffffffffff1681526020018473ffffffffffffffffffffffffffffffffffffffff1673ffffffffffffffffffffffffffffffffffffffff16815260200183815260200180602001828103825283818151815260200191508051906020019080838360005b83811015613760578082015181840152602081019050613745565b50505050905090810190601f16801561378d5780820380516001836020036101000a031916815260200191505b5095505050505050604051602081830303815290604052907bffffffffffffffffffffffffffffffffffffffffffffffffffffffff19166020820180517bffffffffffffffffffffffffffffffffffffffffffffffffffffffff8381831617835250505050604051806060016040528060328152602001613e94603291398773ffffffffffffffffffffffffffffffffffffffff16613b1c9092919063ffffffff16565b9050600081806020019051602081101561384a57600080fd5b8101908080519060200190929190505050905063150b7a0260e01b7bffffffffffffffffffffffffffffffffffffffffffffffffffffffff1916817bffffffffffffffffffffffffffffffffffffffffffffffffffffffff191614925050505b949350505050565b600080836001016000848152602001908152602001600020541415905092915050565b600080836001016000848152602001908152602001600020549050600081146139b1576000600182039050600060018660000180549050039050600086600001828154811061392057fe5b906000526020600020015490508087600001848154811061393d57fe5b906000526020600020018190555060018301876001016000838152602001908152602001600020819055508660000180548061397557fe5b600190038181906000526020600020016000905590558660010160008781526020019081526020016000206000905560019450505050506139b7565b60009150505b92915050565b60006139c98383613b34565b613a22578260000182908060018154018082558091505060019003906000526020600020016000909190919091505582600001805490508360010160008481526020019081526020016000208190555060019050613a27565b600090505b92915050565b6000808460010160008581526020019081526020016000205490506000811415613ad457846000016040518060400160405280868152602001858152509080600181540180825580915050600190039060005260206000209060020201600090919091909150600082015181600001556020820151816001015550508460000180549050856001016000868152602001908152602001600020819055506001915050613b02565b82856000016001830381548110613ae757fe5b90600052602060002090600202016001018190555060009150505b9392505050565b600080823b905060008111915050919050565b6060613b2b8484600085613b57565b90509392505050565b600080836001016000848152602001908152602001600020541415905092915050565b606082471015613bb2576040517f08c379a0000000000000000000000000000000000000000000000000000000008152600401808060200182810382526026815260200180613f106026913960400191505060405180910390fd5b613bbb85613b09565b613c2d576040517f08c379a000000000000000000000000000000000000000000000000000000000815260040180806020018281038252601d8152602001807f416464726573733a2063616c6c20746f206e6f6e2d636f6e747261637400000081525060200191505060405180910390fd5b600060608673ffffffffffffffffffffffffffffffffffffffff1685876040518082805190602001908083835b60208310613c7d5780518252602082019150602081019050602083039250613c5a565b6001836020036101000a03801982511681845116808217855250505050505090500191505060006040518083038185875af1925050503d8060008114613cdf576040519150601f19603f3d011682016040523d82523d6000602084013e613ce4565b606091505b5091509150613cf4828286613d00565b92505050949350505050565b60608315613d1057829050613dc5565b600083511115613d235782518084602001fd5b816040517f08c379a00000000000000000000000000000000000000000000000000000000081526004018080602001828103825283818151815260200191508051906020019080838360005b83811015613d8a578082015181840152602081019050613d6f565b50505050905090810190601f168015613db75780820380516001836020036101000a031916815260200191505b509250505060405180910390fd5b9392505050565b828054600181600116156101000203166002900490600052602060002090601f016020900481019282601f10613e0d57805160ff1916838001178555613e3b565b82800160010185558215613e3b579182015b82811115613e3a578251825591602001919060010190613e1f565b5b509050613e489190613e4c565b5090565b613e6e91905b80821115613e6a576000816000905550600101613e52565b5090565b9056fe456e756d657261626c655365743a20696e646578206f7574206f6620626f756e64734552433732313a207472616e7366657220746f206e6f6e20455243373231526563656976657220696d706c656d656e7465724f776e61626c653a206e6577206f776e657220697320746865207a65726f20616464726573734552433732313a207472616e7366657220746f20746865207a65726f2061646472657373416464726573733a20696e73756666696369656e742062616c616e636520666f722063616c6c4552433732313a206f70657261746f7220717565727920666f72206e6f6e6578697374656e7420746f6b656e4552433732313a20617070726f76652063616c6c6572206973206e6f74206f776e6572206e6f7220617070726f76656420666f7220616c6c4552433732313a2062616c616e636520717565727920666f7220746865207a65726f20616464726573734552433732313a206f776e657220717565727920666f72206e6f6e6578697374656e7420746f6b656e4d696e746572526f6c653a2063616c6c657220646f6573206e6f74206861766520746865204d696e74657220726f6c65526f6c65733a206163636f756e7420646f6573206e6f74206861766520726f6c65456e756d657261626c654d61703a20696e646578206f7574206f6620626f756e64734552433732313a20617070726f76656420717565727920666f72206e6f6e6578697374656e7420746f6b656e4552433732314d657461646174613a2055524920736574206f66206e6f6e6578697374656e7420746f6b656e526f6c65733a206163636f756e7420697320746865207a65726f20616464726573734552433732313a207472616e73666572206f6620746f6b656e2074686174206973206e6f74206f776e4552433732314d657461646174613a2055524920717565727920666f72206e6f6e6578697374656e7420746f6b656e4552433732313a20617070726f76616c20746f2063757272656e74206f776e65724552433732313a207472616e736665722063616c6c6572206973206e6f74206f776e6572206e6f7220617070726f766564a264697066735822122026720261eb8b3b547c23045ba01611267cbedf2330fa34a058376441916f77fe64736f6c63430006020033526f6c65733a206163636f756e7420697320746865207a65726f2061646472657373",
  "source": "pragma solidity >=0.6.0 <0.8.0;\r\n\r\n// import \"https://github.com/OpenZeppelin/openzeppelin-contracts/blob/v3.3.0/contracts/token/ERC721/ERC721.sol\";\r\n// import \"https://github.com/OpenZeppelin/openzeppelin-contracts/blob/v3.3.0/contracts/access/Ownable.sol\";\r\n\r\n\r\nimport \"@openzeppelin/contracts/token/ERC721/ERC721.sol\";\r\nimport \"./IERC2981.sol\";\r\nimport \"@openzeppelin/contracts/access/Ownable.sol\";\r\n\r\nimport \"./MinterRole.sol\";\r\n\r\n\r\ncontract MousaiNFT is ERC721, MinterRole, IERC2981, Ownable{\r\n    \r\n     using SafeMath for uint;\r\n     \r\n     \r\n     uint private _supplyCap;\r\n     mapping (uint256 => uint256) private _tokenRoyalty;\r\n     \r\n     \r\n     /*\r\n     * bytes4(keccak256('getFeeBps(uint256)')) == 0x0ebd4c7f\r\n     * bytes4(keccak256('getFeeRecipients(uint256)')) == 0xb9c4d9fb\r\n     *\r\n     * => 0x0ebd4c7f ^ 0xb9c4d9fb == 0xb7799584\r\n     */\r\n    //bytes4 private constant _INTERFACE_ID_RARIBLE_FEES = 0xb7799584;\r\n\r\n    /*\r\n     * ERC165 bytes to add to interface array - set in parent contract implementing this standard\r\n     *\r\n     * \r\n     */\r\n    bytes4 private constant _INTERFACE_ID_ERC721ROYALTIES = 0x4b7f2c2d;\r\n    \r\n    address payable public creator;\r\n    \r\n   \r\n  \r\n  constructor (string memory name, string memory symbol, string memory baseURI, uint256 _royaltyAmount, uint256 supplyCap)  \r\n    public  ERC721(\"MouSai\", \"MOUSAI\") \r\n  {\r\n      _setBaseURI(baseURI);\r\n      \r\n      setInitialRoyalty(_royaltyAmount);\r\n      creator = msg.sender;\r\n      _supplyCap = supplyCap;\r\n      _registerInterface(_INTERFACE_ID_ERC721ROYALTIES);\r\n  }\r\n  \r\n  //called by creator/artist when receiving event ReceivedRoyalties to reset _tokenRoyalty for resale\r\n  function setTokenIdRoyalty(uint256 tokenId, uint256 _royaltyPercentage) public onlyOwner{\r\n      require(tokenId <= _supplyCap, \"invalid tokenId\" );\r\n         _tokenRoyalty[tokenId] = _royaltyPercentage;\r\n  }\r\n     \r\n\r\n  function setInitialRoyalty(uint256 _royaltyPercentage) public onlyOwner{\r\n         for (uint tokenId=0; tokenId<_supplyCap; tokenId++){\r\n            _tokenRoyalty[tokenId] = _royaltyPercentage;\r\n         }\r\n     }\r\n  \r\n   // Implements the current version of https://eips.ethereum.org/EIPS/eip-2981\r\n    function royaltyInfo(uint256 _tokenId) external override returns (address receiver, uint256 amount) {\r\n        return (creator, _tokenRoyalty[_tokenId]);\r\n    }\r\n    \r\n  \r\n  function getCreator() public view returns (address payable){\r\n      return creator;\r\n  }\r\n  \r\n  function getRoyaltyPercentage(uint _tokenId) public returns (uint256){\r\n      return _tokenRoyalty[_tokenId];\r\n  }\r\n  \r\n  function setTokenSupplyCap(uint max) public onlyOwner{\r\n      _supplyCap = max;\r\n  }\r\n\r\n  function mintNFT(address _to, uint256 _tokenId) public onlyMinter{\r\n      require(_tokenId <= _supplyCap && _tokenId > 0, \"Invalid tokenId\");\r\n      _safeMint(_to, _tokenId);\r\n  }\r\n    \r\n  function mint(address _to) public onlyMinter returns (bool) {\r\n      require(totalSupply() > 0, \"No MousaiNFT\");\r\n      _mintWithTokenURI(_to, tokenURI(totalSupply()));\r\n      return true;\r\n  }\r\n  \r\n  function mint(address _to, string memory _tokenURI) public onlyMinter returns (bool) {\r\n      _mintWithTokenURI(_to, _tokenURI);\r\n      return true;\r\n  }\r\n\r\n  function _mintWithTokenURI(address _to, string memory _tokenURI) internal onlyMinter{\r\n      require(totalSupply() < _supplyCap, \"All sold out\");\r\n      uint _tokenId = totalSupply().add(1);\r\n      _mint(_to, _tokenId);\r\n      _setTokenURI(_tokenId, _tokenURI);\r\n  }\r\n  \r\n  \r\n  function receivedRoyalties(address _royaltyRecipient, address _buyer, uint256 _tokenId, address _tokenPaid, uint256 _amount) override external{\r\n      emit ReceivedRoyalties(_royaltyRecipient, _buyer, _tokenId, _tokenPaid, _amount);\r\n  }\r\n\r\n}",
  "sourcePath": "/Users/midmoussi/Projects/mousai/nft-hack/src/contracts/MousaiNFT.sol",
  "compiler": {
    "name": "solc",
    "version": "0.6.2+commit.bacdbe57.Emscripten.clang"
  },
  "schemaVersion": "3.0.20",
  "updatedAt": "2021-03-21T15:26:37.948Z",
  "devdoc": {
    "methods": {
      "approve(address,uint256)": {
        "details": "See {IERC721-approve}."
      },
      "balanceOf(address)": {
        "details": "See {IERC721-balanceOf}."
      },
      "baseURI()": {
        "details": "Returns the base URI set via {_setBaseURI}. This will be automatically added as a prefix in {tokenURI} to each token's URI, or to the token ID if no specific URI is set for that token ID."
      },
      "getApproved(uint256)": {
        "details": "See {IERC721-getApproved}."
      },
      "isApprovedForAll(address,address)": {
        "details": "See {IERC721-isApprovedForAll}."
      },
      "name()": {
        "details": "See {IERC721Metadata-name}."
      },
      "owner()": {
        "details": "Returns the address of the current owner."
      },
      "ownerOf(uint256)": {
        "details": "See {IERC721-ownerOf}."
      },
      "renounceOwnership()": {
        "details": "Leaves the contract without owner. It will not be possible to call `onlyOwner` functions anymore. Can only be called by the current owner.     * NOTE: Renouncing ownership will leave the contract without an owner, thereby removing any functionality that is only available to the owner."
      },
      "safeTransferFrom(address,address,uint256)": {
        "details": "See {IERC721-safeTransferFrom}."
      },
      "safeTransferFrom(address,address,uint256,bytes)": {
        "details": "See {IERC721-safeTransferFrom}."
      },
      "setApprovalForAll(address,bool)": {
        "details": "See {IERC721-setApprovalForAll}."
      },
      "supportsInterface(bytes4)": {
        "details": "See {IERC165-supportsInterface}.     * Time complexity O(1), guaranteed to always use less than 30 000 gas."
      },
      "symbol()": {
        "details": "See {IERC721Metadata-symbol}."
      },
      "tokenByIndex(uint256)": {
        "details": "See {IERC721Enumerable-tokenByIndex}."
      },
      "tokenOfOwnerByIndex(address,uint256)": {
        "details": "See {IERC721Enumerable-tokenOfOwnerByIndex}."
      },
      "tokenURI(uint256)": {
        "details": "See {IERC721Metadata-tokenURI}."
      },
      "totalSupply()": {
        "details": "See {IERC721Enumerable-totalSupply}."
      },
      "transferFrom(address,address,uint256)": {
        "details": "See {IERC721-transferFrom}."
      },
      "transferOwnership(address)": {
        "details": "Transfers ownership of the contract to a new account (`newOwner`). Can only be called by the current owner."
      }
    }
  },
  "userdoc": {
    "methods": {}
  }
}