{
  "contractName": "Test",
  "abi": [
    {
      "inputs": [],
      "stateMutability": "nonpayable",
      "type": "constructor"
    },
    {
      "inputs": [],
      "name": "increase",
      "outputs": [
        {
          "internalType": "uint256",
          "name": "",
          "type": "uint256"
        }
      ],
      "stateMutability": "nonpayable",
      "type": "function"
    },
    {
      "inputs": [],
      "name": "decrease",
      "outputs": [
        {
          "internalType": "uint256",
          "name": "",
          "type": "uint256"
        }
      ],
      "stateMutability": "nonpayable",
      "type": "function"
    },
    {
      "inputs": [],
      "name": "getCount",
      "outputs": [
        {
          "internalType": "uint256",
          "name": "",
          "type": "uint256"
        }
      ],
      "stateMutability": "view",
      "type": "function"
    },
    {
      "inputs": [
        {
          "internalType": "uint256",
          "name": "_count",
          "type": "uint256"
        }
      ],
      "name": "setCount",
      "outputs": [
        {
          "internalType": "uint256",
          "name": "",
          "type": "uint256"
        }
      ],
      "stateMutability": "nonpayable",
      "type": "function"
    }
  ],
  "bytecode": "0x608060405234801561001057600080fd5b5033600160006101000a81548173ffffffffffffffffffffffffffffffffffffffff021916908373ffffffffffffffffffffffffffffffffffffffff160217905550610170806100616000396000f3fe608060405234801561001057600080fd5b506004361061004c5760003560e01c8063a87d942c14610051578063d14e62b81461006f578063d732d955146100b1578063e8927fbc146100cf575b600080fd5b6100596100ed565b6040518082815260200191505060405180910390f35b61009b6004803603602081101561008557600080fd5b81019080803590602001909291905050506100f6565b6040518082815260200191505060405180910390f35b6100b9610104565b6040518082815260200191505060405180910390f35b6100d7610120565b6040518082815260200191505060405180910390f35b60008054905090565b600081600081905550919050565b6000806000815480929190600190039190505550600054905090565b60006001600080828254019250508190555060005490509056fea2646970667358221220ae37318f03f197cdf8614cc4088c6b70d3a0293946e8845cce20d405ff0e720f64736f6c634300060c0033",
  "immutableReferences": {},
  "source": "pragma solidity >=0.6.0 <0.8.0;\r\n\r\ncontract Test{\r\n    uint private count;\r\n    address private owner;\r\n    // address public constant approver = 0x94C9081c3Fc6DDF2F25426af516F9af82fA0F4ae;\r\n    \r\n\r\n    // events\r\n    // event Increment();\r\n\r\n\r\n    constructor() public{\r\n        owner = msg.sender;\r\n        \r\n    }\r\n\r\n    function increase() public returns (uint){\r\n        count +=1;\r\n        return count;\r\n        // emit Increment();\r\n\r\n    }\r\n\r\n    function decrease() public returns (uint){\r\n        count--;\r\n        return count; \r\n    }\r\n\r\n    function getCount() public view returns (uint){\r\n        return count;\r\n    }\r\n\r\n    function setCount(uint _count) public returns(uint){\r\n        count = _count;\r\n    }\r\n\r\n    //receive(encrypted seedphrase) push the encrypted word into the  smart contract\r\n    //choseHolder(number,adresses) chainlink to chose a random holder\r\n    //sendSeedPhrase() send encrypted seedphrase to holder\r\n    //getListHolders(adresse , order) return the person adress to the user\r\n    //storeContactList(adresse , order, randomMasterkey) store the holder contact list on ipfs\r\n    // encrypt(pubkey,word) general function\r\n    // earn(holderAdress,amount) send money to aave to earn interest\r\n    // \r\n\r\n    // fallback() payable external{}\r\n}",
  "sourcePath": "/Users/midmoussi/Projects/mousai/nft-hack/src/contracts/Test.sol",
  "compiler": {
    "name": "solc",
    "version": "0.6.12+commit.27d51765.Emscripten.clang"
  },
  "schemaVersion": "3.3.3",
  "updatedAt": "2021-03-21T02:42:57.888Z",
  "devdoc": {
    "kind": "dev",
    "methods": {},
    "version": 1
  },
  "userdoc": {
    "kind": "user",
    "methods": {},
    "version": 1
  }
}